:100000000C9434000C9449000C9449000C94490061
:100010000C9449000C9449000C9449000C944B003A
:100020000C9449000C9449000C9449000C9449002C
:100030000C9449000C9449000C9449000C9449001C
:100040000C9449000C9449000C9449000C9449000C
:100050000C9449000C9449000C9449000C944900FC
:100060000C9449000C94490011241FBECFEFD8E036
:10007000DEBFCDBF11E0A0E0B1E0ECEBF2E002C0EA
:1000800005900D92A031B107D9F70E94E1000C94C0
:100090005C010C9400001F920F920FB60F92112476
:1000A0002F933F938F939F93EF93FF93809105013D
:1000B0008F5F80930501853010F010920501E0916B
:1000C0000501F0E024E030E02E1B3F0B81E090E0E2
:1000D00002C0880F991F2A95E2F7809585B9E050F4
:1000E000FF4F80818BB9FF91EF919F918F913F914D
:1000F0002F910F900FBE0F901F9018958FE384B92A
:1001000080E287B98FEF8AB992E09093B00083E0E4
:100110008093B10089EF8093B3009093700078943E
:100120000895E0E0F1E0E80FF11D60830895E0E05C
:10013000F1E0E80FF11D8081089526B130E002C0A2
:10014000359527958A95E2F72095822F817008953D
:100150002D9A2D982D9A20E080E090E83499892BF3
:100160004598459A2F5F283011F09695F7CF08955E
:100170001F93182F0E94A80021E030E0012E02C03A
:10018000220F331F0A94E2F790E02823392302C09C
:10019000359527951A95E2F7822F1F91089530998A
:1001A00002C081E00895319902C082E00895329939
:1001B00002C083E00895339902C084E0089580E08E
:1001C0000895EF92FF920F931F93CF93DF930E94B6
:1001D0007E000E94CF00F82E882319F485E08093DA
:1001E0000101EE24E39400E0C0E9D1E00E94A80000
:1001F0008093000184EF91E0FE013197F1F70197C0
:10020000D9F70E94CF00182F8F1509F43FC0813015
:1002100019F4EE24E3940EC0823019F422E0E22EA9
:1002200009C0833019F493E0E92E04C0843011F43E
:1002300084E0E82E0E94A8008E3F19F4F12E08E019
:1002400025C08D3F19F4F12E07E020C08B3F19F433
:10025000F12E06E01BC0873F19F4F12E05E016C011
:100260008F3E19F4F12E04E011C08F3D19F4F12EE8
:1002700003E00CC08F3B19F4F12E02E007C08F376A
:1002800019F0F12E00E002C0F12E01E0EE2DF0E0B9
:10029000E050FF4FA02FB0E0AA5FBE4F8C9180834B
:1002A00084EF91E0FE013197F1F70197D9F70E94B1
:0C02B000A800809300019ACFF894FFCFC3
:1002BC0000FFFFFFFF0405DD46549C34245D040061
:00000001FF
