:100000000C9434000C9446000C9446000C9446006A
:100010000C9446000C9446000C9446000C94460048
:100020000C9446000C9446000C9446000C94460038
:100030000C9446000C9446000C941E030C9446004D
:100040000C9446000C9446000C9448000C94460016
:100050000C9446000C9446000C9446000C94460008
:100060000C9446000C94460011241FBECFEFD8E03C
:10007000DEBFCDBF11E0A0E0B1E001C01D92A7340A
:10008000B107E1F70E9443030C94D3090C940000DC
:100090001F920F920FB60F9211248F939F93EF939D
:1000A000FF93809102019091C600E82FF0E0E95F94
:1000B000FE4F90838F5F80930201809102018F73C6
:1000C0008093020180910001803428F48091000126
:1000D0008F5F80930001FF91EF919F918F910F901F
:1000E0000FBE0F901F9018959B01AC0180E280938A
:1000F000C00088E98093C10086E08093C20084E05C
:10010000220F331F441F551F8A95D1F760E074E218
:1001100084EF90E00E94B109215030403093C50037
:100120002093C40078940895809100010895982F39
:100130008091C00085FFFCCF9093C6000895FC011C
:1001400007C08091C00085FFFCCF9093C600319618
:1001500090819923B1F708959C01F9012F5F3F4FDA
:100160009491992339F08091C00085FFFCCF909342
:10017000C600F3CF089580910001882311F4EFEFBA
:1001800014C080910101E82FF0E0E95FFE4FE081AB
:100190008F5F80930101809101018F738093010132
:1001A000809100018150809300018E2F0895EF927D
:1001B000FF921F93CF93DF937C0110E006C00E9453
:1001C000BB00CE0DDF1D88831F5F80910001C12F12
:1001D000D0E08823A1F7CE0DDF1D1882812FDF919B
:1001E000CF911F91FF90EF90089580910001882397
:1001F00011F48FEF0895E0910101F0E0E95FFE4F07
:10020000808108951F93CF93DF9302C00E94BB00AB
:1002100080910001882341F0E0910101F0E0E95F65
:10022000FE4F8081803364F480910001882371F354
:10023000E0910101F0E0E95FFE4F80818D3231F7FE
:1002400080910001882341F0E0910101F0E0E95F35
:10025000FE4F80818A33D4F680910001882361F0BB
:10026000E0910101F0E0E95FFE4F80818D3221F4E1
:100270000E94BB001FEF01C011E0C0E0D0E012C03F
:100280000E94BB009E0143E0220F331F4A95E1F715
:10029000CC0FDD1FC20FD31FE097992787FD9095E4
:1002A000C80FD91F809100018823A1F0E0910101BE
:1002B000F0E0E95FFE4F8081803364F080910001BF
:1002C0008823F1F2E0910101F0E0E95FFE4F8081C7
:1002D0008A33B4F2812F992787FD9095C89F9001AA
:1002E000C99F300DD89F300D1124C901DF91CF91E6
:1002F0001F9108958130F9F0813020F0823009F0AB
:100300004BC032C0413059F425B181E090E002C0C9
:10031000880F991F6A95E2F7282B25B9089525B112
:1003200081E090E002C0880F991F6A95E2F78095FE
:10033000822385B90895413059F428B181E090E0D5
:1003400002C0880F991F6A95E2F7282B28B90895F3
:1003500028B181E090E002C0880F991F6A95E2F70A
:100360008095822388B90895413059F42BB181E0FA
:1003700090E002C0880F991F6A95E2F7282B2BB9ED
:1003800008952BB181E090E002C0880F991F6A9513
:10039000E2F7809582238BB908958130F9F081309E
:1003A00020F0823009F04BC032C0413059F424B102
:1003B00081E090E002C0880F991F6A95E2F7282B30
:1003C00024B9089524B181E090E002C0880F991FFC
:1003D0006A95E2F78095822384B90895413059F4F3
:1003E00027B181E090E002C0880F991F6A95E2F77B
:1003F000282B27B9089527B181E090E002C0880F2B
:10040000991F6A95E2F78095822387B90895413054
:1004100059F42AB181E090E002C0880F991F6A95D3
:10042000E2F7282B2AB908952AB181E090E002C0B2
:10043000880F991F6A95E2F7809582238AB90895FB
:100440002F923F924F925F926F927F928F929F92E4
:10045000AF92BF92CF92DF92EF92FF920F931F93D2
:10046000DF93CF93CDB7DEB72A970FB6F894DEBFF0
:100470000FBECDBF209103013091040140910501D1
:100480005091060159016A01EE24FF248701298356
:10049000BA82CB82DC82ED82FE820F8318878B01C9
:1004A0009C0140E050E060E070E03E2C31944F2C25
:1004B00041945F805194B884B194B98680910301CE
:1004C00090910401A0910501B09106014C015D01DC
:1004D000CC24DD247601282E8981281A91E082140B
:1004E00008F090E0892DAA818A1B772473949816CE
:1004F00008F07724682E691A91E0861508F090E0DC
:10050000792A8A2DBB818B1BE1E0EA87A81608F0C7
:100510001A86F82FF7197F2E91E08F1708F090E0D8
:100520008A85892B8A878B2D9C81891B91E0B8163F
:1005300008F090E0B82FAA85BA1BE1E08B1708F00D
:10054000E0E09E2B81E0C31408F080E0A32DA91BFE
:1005500091E03A1608F090E0892B91E0D41408F06D
:1005600090E0E42DE81BEA8781E04E1608F080E079
:10057000982B81E0E51408F080E0F52CF91A91E061
:100580005F1408F090E0892BF985F81BF71708F441
:1005900095CF7F1711F5F61608F490CF6F15E9F493
:1005A000AA84A51608F48ACF5A15B9F4A41708F43A
:1005B00085CF4A1791F4B31708F480CF3B1769F43D
:1005C000721608F47BCF271541F4611608F476CF34
:1005D000161519F4201608F471CFA0900301B090FD
:1005E0000401C0900501D09006019501A60160E0CC
:1005F00070E080E090E02A960FB6F894DEBF0FBE60
:10060000CDBFCF91DF911F910F91FF90EF90DF90C1
:10061000CF90BF90AF909F908F907F906F905F90A2
:100620004F903F902F90089582E084BD93E095BD58
:1006300099EF97BD80936E00789408951F920F9262
:100640000FB60F9211248F939F93AF93BF93809116
:10065000030190910401A0910501B091060101965A
:10066000A11DB11D8093030190930401A093050186
:10067000B0930601BF91AF919F918F910F900FBEE4
:100680000F901F9018952F923F924F925F926F920A
:100690007F928F929F92AF92BF92CF92DF92EF9212
:1006A000FF920F931F93CF93DF9380E065E041E0CB
:1006B0000E94CD0182E084BD93E095BD99EF97BD86
:1006C00080936E00789460E875E280E090E00E948C
:1006D000740063C411E0809100018823E1F70E9457
:1006E000BB00143009F41DC3153058F4113009F45F
:1006F00049C11130B8F0123009F42CC6133059F743
:10070000DFC1173009F426C6183030F4153009F46B
:1007100044C4163001F748C4183009F47DC51930B7
:10072000D1F649C4C0E0D0E080E065E041E00E943D
:100730007A018091030190910401A0910501B0918B
:1007400006015C016D01EE24FF2487016E2C61948B
:100750007F2C7194802E8194212E2194809103010D
:1007600090910401A0910501B09106019C01AD0199
:1007700060E070E080E090E0322E3A18F1E023155E
:1007800008F0F0E0E32FEB19A1E03E1708F0A0E03D
:100790009E2E9F1AF1E0E91508F0F0E0AF2BE42F50
:1007A000EC19B1E04E1708F0B0E04E2E4A1AF1E015
:1007B000E41508F0F0E0BF2BE52FED19F1E05E172E
:1007C00008F0F0E05E2E5B1AA1E0E51508F0A0E06D
:1007D000FA2BE1E0661508F0E0E0B62DBF1BF1E072
:1007E0006B1608F0F0E0EF2BF1E0771508F0F0E081
:1007F000A72DAE1BE1E07A1608F0E0E0FE2BE1E069
:10080000881508F0E0E0982D9F1B81E0891608F01C
:1008100080E0E82B2E16A1F4992391F4AA2381F409
:10082000BB2371F4552061F4442051F483E0891511
:1008300038F0981609F092CF87EE831508F08ECF26
:100840008091030190910401A0910501B0910601EE
:1008500080E065E040E00E947A0180910301909180
:100860000401A0910501B09106015C016D01EE2427
:10087000FF2487016E2C61947F2C7194802E8194CB
:10088000212E21948091030190910401A0910501F2
:10089000B09106019C01AD0160E070E080E090E065
:1008A000322E3A18F1E0231508F0F0E0E32FEB19AF
:1008B000A1E03E1708F0A0E09E2E9F1AF1E0E91596
:1008C00008F0F0E0AF2BE42FEC19B1E04E1708F080
:1008D000B0E04E2E4A1AF1E0E41508F0F0E0BF2B2C
:1008E000E52FED19F1E05E1708F0F0E05E2E5B1ADF
:1008F000A1E0E51508F0A0E0FA2BE1E0661508F0AC
:10090000E0E0B62DBF1BF1E06B1608F0F0E0EF2B36
:10091000F1E0771508F0F0E0A72DAE1BE1E07A16C4
:1009200008F0E0E0FE2BE1E0881508F0E0E0982D0B
:100930009F1B81E0891608F080E0E82B2E16A1F4B9
:10094000992391F4AA2381F4BB2371F4552061F417
:10095000442051F483E0891538F0981609F092CFBD
:1009600087EE831508F08ECF8091030190910401EA
:10097000A0910501B09106012196C230D10509F080
:10098000D3CEA8CE853509F0A6CE80E065E041E063
:100990000E947A018091030190910401A0910501C8
:1009A000B09106015C016D01EE24FF2487016E2CDD
:1009B00061947F2C7194802E8194212E21948091BA
:1009C000030190910401A0910501B09106019C01E1
:1009D000AD0160E070E080E090E0322E3A18F1E086
:1009E000231508F0F0E0E32FEB19A1E03E1708F023
:1009F000A0E09E2E9F1AF1E0E91508F0F0E0AF2B81
:100A0000E42FEC19B1E04E1708F0B0E04E2E4A1A70
:100A1000F1E0E41508F0F0E0BF2BE52FED19F1E06F
:100A20005E1708F0F0E05E2E5B1AA1E0E51508F015
:100A3000A0E0FA2BE1E0661508F0E0E0B62DBF1B60
:100A4000F1E06B1608F0F0E0EF2BF1E0771508F01D
:100A5000F0E0A72DAE1BE1E07A1608F0E0E0FE2BF7
:100A6000E1E0881508F0E0E0982D9F1B81E08916F1
:100A700008F080E0E82B2E16A1F4992391F4AA2324
:100A800081F4BB2371F4552061F4442051F483E0D8
:100A9000891538F0981609F092CF87EE831508F083
:100AA0008ECF8091030190910401A0910501B09136
:100AB000060180E065E040E00E947A0112E00BCE82
:100AC000C0E0D0E080E065E041E00E947A018091E2
:100AD000030190910401A0910501B09106015C0110
:100AE0006D01EE24FF2487016E2C61947F2C71949C
:100AF000802E8194212E21948091030190910401F4
:100B0000A0910501B09106019C01AD0160E070E08B
:100B100080E090E0322E3A18F1E0231508F0F0E082
:100B2000E32FEB19A1E03E1708F0A0E09E2E9F1ADC
:100B3000F1E0E91508F0F0E0AF2BE42FEC19B1E09B
:100B40004E1708F0B0E04E2E4A1AF1E0E41508F016
:100B5000F0E0BF2BE52FED19F1E05E1708F0F0E0B3
:100B60005E2E5B1AA1E0E51508F0A0E0FA2BE1E0AB
:100B7000661508F0E0E0B62DBF1BF1E06B1608F03B
:100B8000F0E0EF2BF1E0771508F0F0E0A72DAE1BB9
:100B9000E1E07A1608F0E0E0FE2BE1E0881508F0CD
:100BA000E0E0982D9F1B81E0891608F080E0E82B9B
:100BB0002E16A1F4992391F4AA2381F4BB2371F496
:100BC000552061F4442051F483E0891538F09816DB
:100BD00009F092CF87EE831508F08ECF8091030144
:100BE00090910401A0910501B091060180E065E0BB
:100BF00040E00E947A018091030190910401A0914C
:100C00000501B09106015C016D01EE24FF2487010E
:100C10006E2C61947F2C7194802E8194212E2194CE
:100C20008091030190910401A0910501B09106010A
:100C30009C01AD0160E070E080E090E0322E3A1857
:100C4000F1E0231508F0F0E0E32FEB19A1E03E17E7
:100C500008F0A0E09E2E9F1AF1E0E91508F0F0E000
:100C6000AF2BE42FEC19B1E04E1708F0B0E04E2E98
:100C70004A1AF1E0E41508F0F0E0BF2BE52FED197A
:100C8000F1E05E1708F0F0E05E2E5B1AA1E0E515DA
:100C900008F0A0E0FA2BE1E0661508F0E0E0B62DE0
:100CA000BF1BF1E06B1608F0F0E0EF2BF1E07715D9
:100CB00008F0F0E0A72DAE1BE1E07A1608F0E0E0C6
:100CC000FE2BE1E0881508F0E0E0982D9F1B81E005
:100CD000891608F080E0E82B2E16A1F4992391F4F0
:100CE000AA2381F4BB2371F4552061F4442051F40C
:100CF00083E0891538F0981609F092CF87EE8315B6
:100D000008F08ECF8091030190910401A09105011C
:100D1000B09106012196C230D10509F0D3CE14E07E
:100D2000DACC843409F09BC080E065E041E00E94A9
:100D30007A018091030190910401A0910501B09185
:100D400006015C016D01EE24FF2487016E2C619485
:100D50007F2C7194802E8194212E21948091030107
:100D600090910401A0910501B09106019C01AD0193
:100D700060E070E080E090E0322E3A18F1E0231558
:100D800008F0F0E0E32FEB19A1E03E1708F0A0E037
:100D90009E2E9F1AF1E0E91508F0F0E0AF2BE42F4A
:100DA000EC19B1E04E1708F0B0E04E2E4A1AF1E00F
:100DB000E41508F0F0E0BF2BE52FED19F1E05E1728
:100DC00008F0F0E05E2E5B1AA1E0E51508F0A0E067
:100DD000FA2BE1E0661508F0E0E0B62DBF1BF1E06C
:100DE0006B1608F0F0E0EF2BF1E0771508F0F0E07B
:100DF000A72DAE1BE1E07A1608F0E0E0FE2BE1E063
:100E0000881508F0E0E0982D9F1B81E0891608F016
:100E100080E0E82B2E16A1F4992391F4AA2381F403
:100E2000BB2371F4552061F4442051F483E089150B
:100E300038F0981609F092CF87EE831508F08ECF20
:100E40008091030190910401A0910501B0910601E8
:100E500080E065E040E00E947A0115E03CCC8535F9
:100E600009F039CC80E065E041E00E947A01809190
:100E7000030190910401A0910501B09106015C016C
:100E80006D01EE24FF2487016E2C61947F2C7194F8
:100E9000802E8194212E2194809103019091040150
:100EA000A0910501B09106019C01AD0160E070E0E8
:100EB00080E090E0322E3A18F1E0231508F0F0E0DF
:100EC000E32FEB19A1E03E1708F0A0E09E2E9F1A39
:100ED000F1E0E91508F0F0E0AF2BE42FEC19B1E0F8
:100EE0004E1708F0B0E04E2E4A1AF1E0E41508F073
:100EF000F0E0BF2BE52FED19F1E05E1708F0F0E010
:100F00005E2E5B1AA1E0E51508F0A0E0FA2BE1E007
:100F1000661508F0E0E0B62DBF1BF1E06B1608F097
:100F2000F0E0EF2BF1E0771508F0F0E0A72DAE1B15
:100F3000E1E07A1608F0E0E0FE2BE1E0881508F029
:100F4000E0E0982D9F1B81E0891608F080E0E82BF7
:100F50002E16A1F4992391F4AA2381F4BB2371F4F2
:100F6000552061F4442051F483E0891538F0981637
:100F700009F092CF87EE831508F08ECF80910301A0
:100F800090910401A0910501B091060180E065E017
:100F900040E00E947A0116E09ECB80E065E041E0EF
:100FA0000E947A0110E097CB80E065E041E00E946A
:100FB0007A0119E090CBC0E0D0E080E065E041E04C
:100FC0000E947A018091030190910401A091050192
:100FD000B09106015C016D01EE24FF2487016E2CA7
:100FE00061947F2C7194802E8194212E2194809184
:100FF000030190910401A0910501B09106019C01AB
:10100000AD0160E070E080E090E0322E3A18F1E04F
:10101000231508F0F0E0E32FEB19A1E03E1708F0EC
:10102000A0E09E2E9F1AF1E0E91508F0F0E0AF2B4A
:10103000E42FEC19B1E04E1708F0B0E04E2E4A1A3A
:10104000F1E0E41508F0F0E0BF2BE52FED19F1E039
:101050005E1708F0F0E05E2E5B1AA1E0E51508F0DF
:10106000A0E0FA2BE1E0661508F0E0E0B62DBF1B2A
:10107000F1E06B1608F0F0E0EF2BF1E0771508F0E7
:10108000F0E0A72DAE1BE1E07A1608F0E0E0FE2BC1
:10109000E1E0881508F0E0E0982D9F1B81E08916BB
:1010A00008F080E0E82B2E16A1F4992391F4AA23EE
:1010B00081F4BB2371F4552061F4442051F483E0A2
:1010C000891538F0981609F092CF87EE831508F04D
:1010D0008ECF8091030190910401A0910501B09100
:1010E000060180E065E040E00E947A018091030102
:1010F00090910401A0910501B09106015C016D0180
:10110000EE24FF2487016E2C61947F2C7194802E35
:101110008194212E21948091030190910401A0914A
:101120000501B09106019C01AD0160E070E080E036
:1011300090E0322E3A18F1E0231508F0F0E0E32FAA
:10114000EB19A1E03E1708F0A0E09E2E9F1AF1E0F7
:10115000E91508F0F0E0AF2BE42FEC19B1E04E17E1
:1011600008F0B0E04E2E4A1AF1E0E41508F0F0E085
:10117000BF2BE52FED19F1E05E1708F0F0E05E2ED1
:101180005B1AA1E0E51508F0A0E0FA2BE1E0661596
:1011900008F0E0E0B62DBF1BF1E06B1608F0F0E0C0
:1011A000EF2BF1E0771508F0F0E0A72DAE1BE1E0A2
:1011B0007A1608F0E0E0FE2BE1E0881508F0E0E0A8
:1011C000982D9F1B81E0891608F080E0E82B2E16F1
:1011D000A1F4992391F4AA2381F4BB2371F455203F
:1011E00061F4442051F483E0891538F0981609F031
:1011F00092CF87EE831508F08ECF809103019091F6
:101200000401A0910501B09106012196C230D105DB
:1012100009F0D3CE18E05FCA843409F05CCA80E0DC
:1012200065E041E00E947A01809103019091040100
:10123000A0910501B09106015C016D01EE24FF242F
:1012400087016E2C61947F2C7194802E8194212EC5
:1012500021948091030190910401A0910501B09126
:1012600006019C01AD0160E070E080E090E0322E6C
:101270003A18F1E0231508F0F0E0E32FEB19A1E0B4
:101280003E1708F0A0E09E2E9F1AF1E0E91508F045
:10129000F0E0AF2BE42FEC19B1E04E1708F0B0E00E
:1012A0004E2E4A1AF1E0E41508F0F0E0BF2BE52FCE
:1012B000ED19F1E05E1708F0F0E05E2E5B1AA1E098
:1012C000E51508F0A0E0FA2BE1E0661508F0E0E093
:1012D000B62DBF1BF1E06B1608F0F0E0EF2BF1E04C
:1012E000771508F0F0E0A72DAE1BE1E07A1608F0C4
:1012F000E0E0FE2BE1E0881508F0E0E0982D9F1B70
:1013000081E0891608F080E0E82B2E16A1F49923DD
:1013100091F4AA2381F4BB2371F4552061F4442095
:1013200051F483E0891538F0981609F092CF87EED2
:10133000831508F08ECF8091030190910401A09154
:101340000501B091060180E065E040E00E947A016D
:1013500017E0C1C980E065E041E00E947A0113E036
:10136000BAC9A1E21A2EAA1BBB1BFD010DC0AA1F00
:10137000BB1FEE1FFF1FA217B307E407F50720F0FE
:10138000A21BB30BE40BF50B661F771F881F991F79
:101390001A9469F760957095809590959B01AC01C2
:0A13A000BD01CF010895F894FFCFBE
:00000001FF
