:100000000C9434000C9451000C9451000C94510049
:100010000C9451000C9451000C9451000C9451001C
:100020000C9451000C9451000C9451000C9451000C
:100030000C9451000C9451000C9451000C945100FC
:100040000C9451000C9451000C9411010C9451002B
:100050000C9451000C9451000C9451000C945100DC
:100060000C9451000C94510011241FBECFEFD8E026
:10007000DEBFCDBF11E0A0E0B1E0EEECF4E002C0E5
:1000800005900D92AC35B107D9F711E0ACE5B1E0C0
:1000900001C01D92AF39B107E1F70E9453000C94E3
:1000A00065020C9400006F927F928F929F92AF92A4
:1000B000BF92CF92DF92EF92FF920F931F93DF9345
:1000C000CF93CDB7DEB7C058D0400FB6F894DEBF9F
:1000D0000FBECDBF60E875E280E090E00E943D0178
:1000E00030E9A32E31E0B32E7E010894E11CF11C0F
:1000F00021E4C22ED12CCC0EDD1E93E5692E91E0B9
:10010000792E88E5882E81E0982E80E091E00E948B
:1001100068010E945D018823E1F388EE93E0F50118
:100120003197F1F70197D9F7C7010E94A001082F75
:10013000C7010E94680189E191E00E946801F7010E
:10014000E00FF11D10828CE191E00E9468010E9495
:100150005D018823E1F388EE93E0F5013197F1F733
:100160000197D9F7C6010E94A001182FC6010E946D
:10017000680189E191E00E946801212F30E0F601D9
:10018000E20FF31F1082F30101900020E9F731978D
:10019000E355F140802F90E08E179F0791F5F40111
:1001A00001900020E9F73197E855F1402E173F07FD
:1001B00041F5F70101900020E9F7AF0141505040AF
:1001C0004E195F0961E020E030E016C0F701E20F50
:1001D000F31FD901AD5ABE4F90818C91981749F405
:1001E000F601E20FF31FD901A85ABE4F90818C91FE
:1001F000981360E02F5F3F4F2417350738F36623CD
:1002000019F48EE291E006C083E491E00E94680157
:1002100083E591E00E94680189E191E00E94680114
:1002200074CF1F920F920FB60F9211248F939F934A
:10023000EF93FF9380915E019091C600E82FF0E06C
:10024000E15AFE4F90838F5F80935E0180915E0143
:100250008F7380935E0180915C01803428F48091DB
:100260005C018F5F80935C01FF91EF919F918F9173
:100270000F900FBE0F901F9018959B01AC0180E26C
:100280008093C00088E98093C10086E08093C2001B
:1002900084E0220F331F441F551F8A95D1F760E079
:1002A00074E284EF90E00E9443022150304030938A
:1002B000C5002093C4007894089580915C0108954E
:1002C000982F8091C00085FFFCCF9093C6000895C1
:1002D000FC0107C08091C00085FFFCCF9093C60051
:1002E000319690819923B1F708959C01F9012F5F10
:1002F0003F4F9491992339F08091C00085FFFCCF46
:100300009093C600F3CF089580915C01882311F487
:10031000EFEF14C080915D01E82FF0E0E15AFE4F4D
:10032000E0818F5F80935D0180915D018F73809389
:100330005D0180915C01815080935C018E2F089556
:10034000EF92FF921F93CF93DF937C0110E006C0E2
:100350000E948401CE0DDF1D88831F5F80915C01A8
:10036000C12FD0E08823A1F7CE0DDF1D1882812F89
:10037000DF91CF911F91FF90EF90089580915C01E4
:10038000882311F48FEF0895E0915D01F0E0E15AC8
:10039000FE4F808108951F93CF93DF9302C00E9488
:1003A000840180915C01882341F0E0915D01F0E0DF
:1003B000E15AFE4F8081803364F480915C01882390
:1003C00071F3E0915D01F0E0E15AFE4F80818D32E2
:1003D00031F780915C01882341F0E0915D01F0E00C
:1003E000E15AFE4F80818A33D4F680915C018823E4
:1003F00061F0E0915D01F0E0E15AFE4F80818D32C5
:1004000021F40E9484011FEF01C011E0C0E0D0E0A0
:1004100012C00E9484019E0143E0220F331F4A95BF
:10042000E1F7CC0FDD1FC20FD31FE097992787FD9F
:100430009095C80FD91F80915C018823A1F0E091AD
:100440005D01F0E0E15AFE4F8081803364F08091DD
:100450005C018823F1F2E0915D01F0E0E15AFE4F8A
:1004600080818A33B4F2812F992787FD9095C89FA8
:100470009001C99F300DD89F300D1124C901DF9123
:10048000CF911F910895A1E21A2EAA1BBB1BFD015B
:100490000DC0AA1FBB1FEE1FFF1FA217B307E40763
:1004A000F50720F0A21BB30BE40BF50B661F771FBB
:1004B000881F991F1A9469F760957095809590959B
:0E04C0009B01AC01BD01CF010895F894FFCF60
:1004CE00556E6573697465206B6F7269736E6963BF
:1004DE006B6F20696D653A20000D0A00556E6573CD
:1004EE00697465206C6F7A696E6B753A20004C6F7B
:1004FE00676F76616E6A65206E6575737065736E73
:10050E006F2E00446F62726F646F73616F2F6C6138
:0C051E002C20006C6A7570006A656A0091
:00000001FF
