:100000000C9434000C9451000C9451000C94510049
:100010000C9451000C9451000C9451000C9451001C
:100020000C9451000C9451000C9451000C9451000C
:100030000C9451000C9451000C9451000C945100FC
:100040000C9451000C9451000C94CA000C94510073
:100050000C9451000C9451000C9451000C945100DC
:100060000C9451000C94510011241FBECFEFD8E026
:10007000DEBFCDBF11E0A0E0B1E0E0E4F4E002C0FB
:1000800005900D92A033B107D9F711E0A0E3B1E0DC
:1000900001C01D92A337B107E1F70E9491000C94B3
:1000A0001E020C940000CF93DF93EC01AB0130E013
:1000B00017C0CA018F709070E32FF0E0242F2F70CB
:1000C0000A9720F4EC0FFD1F205D03C0EC0FFD1F0D
:1000D000295C208384E0569547958A95E1F73F5F38
:1000E0004115510531F7432F4695DE01E32FF0E02E
:1000F0003197EC0FFD1F20E00CC080819C91892777
:100100008C939081982790838C9189278D932F5F72
:100110003197241790F3C30FD11D1882DF91CF912F
:100120000895EF92FF920F931F93DF93CF93CDB774
:10013000DEB7C054D0400FB6F894DEBF0FBECDBFBF
:1001400060E875E280E090E00E94F60090E9E92E18
:1001500091E0F92E8E010F5F1F4F80E091E00E9429
:1001600021010E9416018823E1F388EE93E0F70154
:100170003197F1F70197D9F70E948401BC01C801BA
:100180000E945300C8010E9421018DE291E00E946B
:100190002101E3CF1F920F920FB60F9211248F937C
:1001A0009F93EF93FF93809132019091C600E82FC7
:1001B000F0E0ED5CFE4F90838F5F80933201809181
:1001C00032018F738093320180913001803428F4A2
:1001D000809130018F5F80933001FF91EF919F916B
:1001E0008F910F900FBE0F901F9018959B01AC013F
:1001F00080E28093C00088E98093C10086E080930C
:10020000C20084E0220F331F441F551F8A95D1F787
:1002100060E074E284EF90E00E94FC0121503040E5
:100220003093C5002093C4007894089580913001E4
:100230000895982F8091C00085FFFCCF9093C60051
:100240000895FC0107C08091C00085FFFCCF90930A
:10025000C600319690819923B1F708959C01F90168
:100260002F5F3F4F9491992339F08091C00085FF13
:10027000FCCF9093C600F3CF08958091300188237E
:1002800011F4EFEF14C080913101E82FF0E0ED5C44
:10029000FE4FE0818F5F80933101809131018F7338
:1002A00080933101809130018150809330018E2FF5
:1002B0000895EF92FF921F93CF93DF937C0110E09C
:1002C00006C00E943D01CE0DDF1D88831F5F809117
:1002D0003001C12FD0E08823A1F7CE0DDF1D188299
:1002E000812FDF91CF911F91FF90EF900895809122
:1002F0003001882311F48FEF0895E0913101F0E08F
:10030000ED5CFE4F808108951F93CF93DF9302C071
:100310000E943D0180913001882341F0E09131013C
:10032000F0E0ED5CFE4F8081803364F48091300119
:10033000882371F3E0913101F0E0ED5CFE4F8081A4
:100340008D3231F780913001882341F0E091310105
:10035000F0E0ED5CFE4F80818A33D4F6809130016D
:10036000882361F0E0913101F0E0ED5CFE4F808187
:100370008D3221F40E943D011FEF01C011E0C0E069
:10038000D0E012C00E943D019E0143E0220F331FC6
:100390004A95E1F7CC0FDD1FC20FD31FE0979927D5
:1003A00087FD9095C80FD91F809130018823A1F057
:1003B000E0913101F0E0ED5CFE4F8081803364F02C
:1003C000809130018823F1F2E0913101F0E0ED5CA1
:1003D000FE4F80818A33B4F2812F992787FD909553
:1003E000C89F9001C99F300DD89F300D1124C901BD
:1003F000DF91CF911F910895A1E21A2EAA1BBB1B7A
:10040000FD010DC0AA1FBB1FEE1FFF1FA217B307E0
:10041000E407F50720F0A21BB30BE40BF50B661FF6
:10042000771F881F991F1A9469F7609570958095BA
:1004300090959B01AC01BD01CF010895F894FFCFC9
:10044000556E65736974652062726F6A206B6F6A9E
:1004500069207A656C697465206461206B6F6E76C3
:10046000657274756A6574653A200D0A000D0A009C
:00000001FF
