:100000000C9434000C9451000C9451000C94510049
:100010000C9451000C9451000C9451000C9451001C
:100020000C9451000C9451000C9451000C9451000C
:100030000C9451000C9451000C9451000C945100FC
:100040000C9451000C9451000C948D000C945100B0
:100050000C9451000C9451000C9451000C945100DC
:100060000C9451000C94510011241FBECFEFD8E026
:10007000DEBFCDBF11E0A0E0B1E0E6ECF3E002C0EE
:1000800005900D92AA32B107D9F711E0AAE2B1E0CA
:1000900001C01D92AD36B107E1F70E9453000C94E8
:1000A000E1010C940000EF92FF920F931F93DF93F6
:1000B000CF93CDB7DEB7C054D0400FB6F894DEBFB3
:1000C0000FBECDBF60E875E280E090E00E94B9000D
:1000D00080E9E82E81E0F82E8E010F5F1F4F80E04F
:1000E00091E00E94E4000E94D9008823E1F388EEA9
:1000F00093E0F7013197F1F70197D9F7C8010E9412
:100100001C0188E191E00E94E400C8010E94E40023
:1001100081E291E00E94E400E2CF1F920F920FB6BD
:100120000F9211248F939F93EF93FF9380912C0153
:100130009091C600E82FF0E0E35DFE4F90838F5F63
:1001400080932C0180912C018F7380932C018091DE
:100150002A01803428F480912A018F5F80932A013C
:10016000FF91EF919F918F910F900FBE0F901F9075
:1001700018959B01AC0180E28093C00088E98093D0
:10018000C10086E08093C20084E0220F331F441F29
:10019000551F8A95D1F760E074E284EF90E00E94E9
:1001A000BF01215030403093C5002093C4007894A3
:1001B000089580912A010895982F8091C00085FFAD
:1001C000FCCF9093C6000895FC0107C08091C00049
:1001D00085FFFCCF9093C600319690819923B1F7AB
:1001E00008959C01F9012F5F3F4F9491992339F0B5
:1001F0008091C00085FFFCCF9093C600F3CF089597
:1002000080912A01882311F4EFEF14C080912B0113
:10021000E82FF0E0E35DFE4FE0818F5F80932B01DC
:1002200080912B018F7380932B0180912A01815043
:1002300080932A018E2F0895EF92FF921F93CF9300
:10024000DF937C0110E006C00E940001CE0DDF1D8F
:1002500088831F5F80912A01C12FD0E08823A1F7F6
:10026000CE0DDF1D1882812FDF91CF911F91FF905E
:10027000EF90089580912A01882311F48FEF08955B
:10028000E0912B01F0E0E35DFE4F808108951F9324
:10029000CF93DF9302C00E94000180912A0188233E
:1002A00041F0E0912B01F0E0E35DFE4F808180336F
:1002B00064F480912A01882371F3E0912B01F0E02E
:1002C000E35DFE4F80818D3231F780912A018823D2
:1002D00041F0E0912B01F0E0E35DFE4F80818A3335
:1002E000D4F680912A01882361F0E0912B01F0E09F
:1002F000E35DFE4F80818D3221F40E9400011FEFEB
:1003000001C011E0C0E0D0E012C00E9400019E01D7
:1003100043E0220F331F4A95E1F7CC0FDD1FC20FD8
:10032000D31FE097992787FD9095C80FD91F80911B
:100330002A018823A1F0E0912B01F0E0E35DFE4F5C
:100340008081803364F080912A018823F1F2E0916A
:100350002B01F0E0E35DFE4F80818A33B4F2812F00
:10036000992787FD9095C89F9001C99F300DD89F10
:10037000300D1124C901DF91CF911F910895A1E2A1
:100380001A2EAA1BBB1BFD010DC0AA1FBB1FEE1F0F
:10039000FF1FA217B307E407F50720F0A21BB30B5A
:1003A000E40BF50B661F771F881F991F1A9469F7D6
:1003B00060957095809590959B01AC01BD01CF0132
:0603C0000895F894FFCF40
:1003C600556E657369206B616B6F207365207A6F5C
:1003D6007665733A200D0A0043616F63616F2C20C6
:0A03E600002E203A29200D0A000025
:00000001FF
