:100000000C9434000C9451000C9451000C94510049
:100010000C9451000C9451000C9451000C9451001C
:100020000C9451000C9451000C9451000C9451000C
:100030000C9451000C9451000C9451000C945100FC
:100040000C9451000C9451000C94B7000C94510086
:100050000C9451000C9451000C9451000C945100DC
:100060000C9451000C94510011241FBECFEFD8E026
:10007000DEBFCDBF11E0A0E0B1E0EAE1F4E002C0F4
:1000800005900D92AE32B107D9F711E0AEE2B1E0C2
:1000900001C01D92A137B107E1F70E9453000C94F3
:1000A0000B020C940000AF92BF92CF92DF92EF92BE
:1000B000FF920F931F93DF93CF93CDB7DEB7C05856
:1000C000D0400FB6F894DEBF0FBECDBF60E875E23A
:1000D00080E090E00E94E30090E9A92E91E0B92E23
:1000E0006E010894C11CD11C81E4E82EF12CEC0EA9
:1000F000FD1E80E091E00E940E010E940301882312
:10010000E1F388EE93E0F5013197F1F70197D9F724
:10011000C6010E944601182FC6010E940E01012F40
:1001200010E0F601E00FF11F1082F701D6019701F0
:10013000200F311F09C09C91892F81568A3108F404
:100140009052908331961196E217F307A1F788E158
:1001500091E00E940E010E0D1F1DF8011082C701D3
:100160000E940E018BE291E00E940E01C2CF1F920D
:100170000F920FB60F9211248F939F93EF93FF93DB
:10018000809130019091C600E82FF0E0EF5CFE4FC7
:1001900090838F5F80933001809130018F738093C3
:1001A000300180912E01803428F480912E018F5FE0
:1001B00080932E01FF91EF919F918F910F900FBE31
:1001C0000F901F9018959B01AC0180E28093C000B6
:1001D00088E98093C10086E08093C20084E0220F0A
:1001E000331F441F551F8A95D1F760E074E284EFF6
:1001F00090E00E94E901215030403093C5002093E7
:10020000C4007894089580912E010895982F8091CC
:10021000C00085FFFCCF9093C6000895FC0107C085
:100220008091C00085FFFCCF9093C60031969081ED
:100230009923B1F708959C01F9012F5F3F4F9491E5
:10024000992339F08091C00085FFFCCF9093C600C0
:10025000F3CF089580912E01882311F4EFEF14C09D
:1002600080912F01E82FF0E0EF5CFE4FE0818F5F7F
:1002700080932F0180912F018F7380932F018091A4
:100280002E01815080932E018E2F0895EF92FF92C0
:100290001F93CF93DF937C0110E006C00E942A01D8
:1002A000CE0DDF1D88831F5F80912E01C12FD0E00E
:1002B0008823A1F7CE0DDF1D1882812FDF91CF910A
:1002C0001F91FF90EF90089580912E01882311F4E3
:1002D0008FEF0895E0912F01F0E0EF5CFE4F8081F9
:1002E00008951F93CF93DF9302C00E942A0180914B
:1002F0002E01882341F0E0912F01F0E0EF5CFE4FEA
:100300008081803364F480912E01882371F3E09121
:100310002F01F0E0EF5CFE4F80818D3231F780914C
:100320002E01882341F0E0912F01F0E0EF5CFE4FB9
:1003300080818A33D4F680912E01882361F0E09188
:100340002F01F0E0EF5CFE4F80818D3221F40E949E
:100350002A011FEF01C011E0C0E0D0E012C00E94EE
:100360002A019E0143E0220F331F4A95E1F7CC0F8B
:10037000DD1FC20FD31FE097992787FD9095C80F07
:10038000D91F80912E018823A1F0E0912F01F0E088
:10039000EF5CFE4F8081803364F080912E018823D2
:1003A000F1F2E0912F01F0E0EF5CFE4F80818A33A3
:1003B000B4F2812F992787FD9095C89F9001C99F1E
:1003C000300DD89F300D1124C901DF91CF911F91BD
:1003D0000895A1E21A2EAA1BBB1BFD010DC0AA1F86
:1003E000BB1FEE1FFF1FA217B307E407F50720F09E
:1003F000A21BB30BE40BF50B661F771F881F991F19
:100400001A9469F760957095809590959B01AC0161
:0A041000BD01CF010895F894FFCF5D
:10041A00556E6573697465206E656B6920737472B5
:10042A00696E673A200D0A004E6F766F646F6269D3
:0E043A006A656E61207265633A20000D0A004B
:00000001FF
