:100000000C9434000C9451000C9451000C94510049
:100010000C9451000C9451000C9451000C9451001C
:100020000C9451000C9451000C9451000C9451000C
:100030000C9451000C9451000C9451000C945100FC
:100040000C9451000C9451000C941B010C94510021
:100050000C9451000C9451000C9451000C945100DC
:100060000C9451000C94510011241FBECFEFD8E026
:10007000DEBFCDBF11E0A0E0B1E0EAEBFAE002C0E4
:1000800005900D92AE35B107D9F711E0AEE5B1E0BC
:1000900001C01D92A13AB107E1F70E9480000C94C3
:1000A0005B050C9400008B3261F08C321CF48A32B8
:1000B00029F40FC08D3249F08F3299F02FEF3FEFC6
:1000C0001DC09A01260F371F19C09B01241B350B39
:1000D00015C0469F9001479F300D569F300D11244B
:1000E0000DC04115510529F480E091E00E94720194
:1000F00005C0CB01BA010E944D029B01C9010895C0
:100100004F925F926F927F928F929F92AF92BF9227
:10011000DF92EF92FF920F931F93DF93CF93CDB7B0
:10012000DEB7C054D0400FB6F894DEBF0FBECDBFCF
:1001300060E875E280E090E00E94470120E9422EED
:1001400021E0522E5E010894A11CB11C9AE4692E94
:1001500091E0792E87E5882E81E0982E80E291E06B
:100160000E9472010E9467018823E1F388EE93E008
:10017000F2013197F1F70197D9F70E94D5017C017F
:100180000E948E01D82E0E94D5018C0187E391E058
:100190000E9472018DB79EB70A970FB6F8949EBF62
:1001A0000FBE8DBFEDB7FEB73196ADB7BEB7129695
:1001B000BC92AE92119773826282F582E4828D2D99
:1001C000992787FD909597838683118700870E94E2
:1001D00083028DB79EB70A960FB6F8949EBF0FBEE6
:1001E0008DBFC5010E9472018D2DB701A8010E942B
:1001F000530000D000D000D0EDB7FEB73196ADB7B8
:10020000BEB71296BC92AE9211979382828295836A
:1002100084830E9483028DB79EB706960FB6F8942A
:100220009EBF0FBE8DBFC5010E9472018BE591E09C
:100230000E94720193CF1F920F920FB60F9211245A
:100240008F939F93EF93FF93809160019091C600ED
:10025000E82FF0E0EF59FE4F90838F5F80936001AD
:10026000809160018F738093600180915E01803482
:1002700028F480915E018F5F80935E01FF91EF9182
:100280009F918F910F900FBE0F901F9018959B011B
:10029000AC0180E28093C00088E98093C10086E0D1
:1002A0008093C20084E0220F331F441F551F8A959C
:1002B000D1F760E074E284EF90E00E946102215087
:1002C00030403093C5002093C40078940895809105
:1002D0005E010895982F8091C00085FFFCCF909318
:1002E000C6000895FC0107C08091C00085FFFCCFC7
:1002F0009093C600319690819923B1F708959C019F
:10030000F9012F5F3F4F9491992339F08091C000FC
:1003100085FFFCCF9093C600F3CF089580915E01D6
:10032000882311F4EFEF14C080915F01E82FF0E013
:10033000EF59FE4FE0818F5F80935F0180915F01F5
:100340008F7380935F0180915E01815080935E0185
:100350008E2F0895EF92FF921F93CF93DF937C012E
:1003600010E006C00E948E01CE0DDF1D88831F5F46
:1003700080915E01C12FD0E08823A1F7CE0DDF1D53
:100380001882812FDF91CF911F91FF90EF900895F8
:1003900080915E01882311F48FEF0895E0915F0151
:1003A000F0E0EF59FE4F808108951F93CF93DF93C4
:1003B00002C00E948E0180915E01882341F0E0918D
:1003C0005F01F0E0EF59FE4F8081803364F480914B
:1003D0005E01882371F3E0915F01F0E0EF59FE4F79
:1003E00080818D3231F780915E01882341F0E09168
:1003F0005F01F0E0EF59FE4F80818A33D4F680919F
:100400005E01882361F0E0915F01F0E0EF59FE4F5B
:1004100080818D3221F40E948E011FEF01C011E016
:10042000C0E0D0E012C00E948E019E0143E0220F86
:10043000331F4A95E1F7CC0FDD1FC20FD31FE097A2
:10044000992787FD9095C80FD91F80915E01882359
:10045000A1F0E0915F01F0E0EF59FE4F8081803321
:1004600064F080915E018823F1F2E0915F01F0E099
:10047000EF59FE4F80818A33B4F2812F992787FD8F
:100480009095C89F9001C99F300DD89F300D1124C1
:10049000C901DF91CF911F910895AA1BBB1B51E1A8
:1004A00007C0AA1FBB1FA617B70710F0A61BB70BE4
:1004B000881F991F5A95A9F780959095BC01CD0189
:1004C0000895A1E21A2EAA1BBB1BFD010DC0AA1F95
:1004D000BB1FEE1FFF1FA217B307E407F50720F0AD
:1004E000A21BB30BE40BF50B661F771F881F991F28
:1004F0001A9469F760957095809590959B01AC0171
:10050000BD01CF010895AEE0B0E0E9E8F2E00C945F
:1005100032050D891E8986E08C831A8309838FEF4B
:100520009FE79E838D839E01275E3F4FCE010196FC
:100530006F89788DA9010E94A7022F813885020F4B
:10054000131FF80110822E96E4E00C944E05ABE0E8
:10055000B0E0EDEAF2E00C9424053C012B015A01D5
:10056000FC0117821682838181FD03C06FEF7FEF4C
:10057000C6C19AE0892E1E010894211C311CF3018A
:100580002381F20123FD859123FF81912F0188238F
:1005900009F4B2C1853239F423FD859123FF81919D
:1005A0002F01853229F490E0B3010E949A04E7CF2D
:1005B000982FFF24EE249924FFE1FF15D0F09B3201
:1005C00069F09C3228F4903259F0933291F40EC0C5
:1005D0009D3249F0903369F441E024C052E0F52A9D
:1005E00084E0F82A28C098E0F92A25C0E0E1FE2A34
:1005F00022C0F7FC29C0892F80538A3070F4F6FEA0
:1006000005C0989C902C1124980E15C0E89CE02CF5
:100610001124E80EF0E2FF2A0EC09E3229F4F6FC07
:100620006BC140E4F42A07C09C3619F450E8F52A5F
:1006300002C0983649F4F20123FD959123FF919170
:100640002F01992309F0B8CF892F8554833018F0F2
:100650008052833038F444E050E0A40EB51E5FE3CE
:1006600059830FC0933631F0933779F0933509F001
:1006700056C020C0F5018081898342E050E0A40E7D
:10068000B51E610101E010E012C0F501C080D1800B
:10069000F6FC03C06FEF7FEF02C0692D70E042E00F
:1006A00050E0A40EB51EC6010E948F048C015FE7C6
:1006B000F52214C0F501C080D180F6FC03C06FEFB5
:1006C0007FEF02C0692D70E042E050E0A40EB51E3D
:1006D000C6010E9484048C0150E8F52AF3FE07C08D
:1006E0001AC080E290E0B3010E949A04EA948E2D31
:1006F00090E008171907A8F30EC0F601F7FC8591E2
:10070000F7FE81916F0190E0B3010E949A04E1101D
:10071000EA94015010400115110579F7EAC09436AA
:1007200011F0993669F5F7FE08C0F5012081318195
:100730004281538184E090E00AC0F501808191817B
:100740009C01442737FD4095542F82E090E0A80E8D
:10075000B91E9FE6F92257FF09C050954095309584
:1007600021953F4F4F4F5F4FE0E8FE2ACA01B90184
:10077000A1012AE030E00E94C604D82ED21840C061
:10078000953729F41F2D1F7E2AE030E01DC01F2D54
:10079000197F9F3661F0903720F4983509F0ACC08E
:1007A0000FC0903739F0983709F0A6C004C028E090
:1007B00030E00AC0106114FD146020E130E004C094
:1007C00014FD166020E132E017FF08C0F5016081DA
:1007D00071818281938144E050E008C0F5018081FD
:1007E0009181BC0180E090E042E050E0A40EB51E93
:1007F000A1010E94C604D82ED2188FE7F82EF1224C
:10080000F6FE0BC05EEFF522D91438F4F4FE07C0F3
:10081000F2FC05C08FEEF82202C01D2D01C0192D7B
:10082000F4FE0DC0FE01ED0DF11D8081803319F441
:1008300099EEF92208C01F5FF2FE05C003C08F2D9C
:10084000867809F01F5F0F2DF3FC14C0F0FE0FC077
:100850001E1510F09D2C0BC09D2C9E0C911A1E2D68
:1008600006C080E290E0B3010E949A041F5F1E154B
:10087000C0F304C01E1510F4E11A01C0EE2404FFF9
:100880000FC080E390E0B3010E949A0402FF1DC0F4
:1008900001FD03C088E790E00EC088E590E00BC042
:1008A000802F867891F001FF02C08BE201C080E2C8
:1008B000F7FC8DE290E0B3010E949A0406C080E349
:1008C00090E0B3010E949A049A94D914C0F3DA9488
:1008D000F101ED0DF11D808190E0B3010E949A04B9
:1008E000DD20A9F706C080E290E0B3010E949A04DF
:1008F000EA94EE20C1F743CEF30166817781CB0104
:100900002B96E2E10C944005FC010590615070408B
:100910000110D8F7809590958E0F9F1F0895FC01C8
:100920006150704001900110D8F7809590958E0F1E
:100930009F1F08950F931F93CF93DF938C01EB01BB
:100940008B8181FF1BC082FF0DC02E813F818C8176
:100950009D812817390764F4E881F9810193F983AF
:10096000E88306C0E885F985802F0995892B31F445
:100970008E819F8101969F838E8302C00FEF1FEFB0
:10098000C801DF91CF911F910F910895FA01AA2715
:10099000283051F1203181F1E8946F936E7F6E5FC2
:1009A0007F4F8F4F9F4FAF4FB1E03ED0B4E03CD070
:1009B000670F781F891F9A1FA11D680F791F8A1F53
:1009C000911DA11D6A0F711D811D911DA11D20D0BA
:1009D00009F468943F912AE0269F11243019305D74
:1009E0003193DEF6CF010895462F4770405D419365
:1009F000B3E00FD0C9F7F6CF462F4F70405D4A33B2
:100A000018F0495D31FD4052419302D0A9F7EACF79
:100A1000B4E0A6959795879577956795BA95C9F7A8
:100A200000976105710508959B01AC010A2E06949B
:100A30005795479537952795BA95C9F7620F731F54
:100A4000841F951FA01D08952F923F924F925F9291
:100A50006F927F928F929F92AF92BF92CF92DF92CE
:100A6000EF92FF920F931F93CF93DF93CDB7DEB733
:100A7000CA1BDB0B0FB6F894DEBF0FBECDBF0994C7
:100A80002A88398848885F846E847D848C849B841E
:100A9000AA84B984C884DF80EE80FD800C811B812C
:100AA000AA81B981CE0FD11D0FB6F894DEBF0FBE5B
:0A0AB000CDBFED010895F894FFCFCB
:100ABA0044656C6A656E6A65206E756C6F6D206E32
:100ACA00696A6520646566696E6973616E6F210083
:100ADA00556E6573697465206E656B6920697A72F3
:100AEA00617A3A200D0A00556E656C692073746547
:100AFA0020697A72617A203D2000256420256320CE
:0E0B0A002564203D200000256400000D0A0037
:00000001FF
